:0400000097EF00F086
:100008005082FACF02F0FBCF03F0E9CF04F0EACF39
:1000180005F0E1CF06F0E2CF07F0D9CF08F0DACF4C
:1000280009F0F3CF0AF0F4CF0BF0F6CF0CF0F7CFCE
:100038000DF0F8CF0EF0F5CF0FF0F29E9EAA09D082
:10004800D4EC16F04B6E000E0001C86F010EC76F9E
:100058009E9AF2A205D0000E446E010E436EF292F3
:10006800A1A235D0F80EB36E460EB26E0001F15162
:100078000001D55D0001F2510001D659D8B004D075
:100088000001D54BD62B0AD0000E0001D66F000E0A
:10009800D56F000E0001DA6F010ED96F0001EF5124
:1000A8000001D75D0001F0510001D859D8B004D043
:1000B8000001D74BD82B0AD0000E0001D86F000ED4
:1000C800D76F000E0001DC6F010EDB6FA1929EA2BC
:1000D8000BD0490E4F18D8A406D0000E426E010E60
:1000E800416ECA949E929E92F28E0FC0F5FF0EC08A
:1000F800F8FF0DC0F7FF0CC0F6FF0BC0F4FF0AC0F5
:10010800F3FF09C0DAFF08C0D9FF07C0E2FF06C045
:10011800E1FF05C0EAFF04C0E9FF03C0FBFF02C01E
:10012800FAFF509211003CEF14F0800E0001906F1E
:10013800000E0001916F64EF05F0250E0001A31970
:10014800D8B40BD07CC0D9FF7DC0DAFFA3C0DFFFD5
:1001580000017C4B7D2B64EF05F0000E0001936FCE
:10016800000E926F7EC0F6FF7FC0F7FF0800F550C3
:100178002E0AD8A434D00001938D00017E4B7F2B2A
:10018800000E0001A26F000EA16F1ED0A1C01EF0CC
:10019800A2C01FF0000E216E0A0E206E5EEC16F053
:1001A8007EC0F6FF7FC0F7FF0800F5501E26000E40
:1001B8001F22D00E1E240001A16FFF0E1F20000178
:1001C800A26F00017E4B7F2B7EC0F6FF7FC0F7FF3A
:1001D8000800F550B6EC16F0D8A04AD0D7D7000ED4
:1001E8000001A26F000EA16F0001938941D00001A8
:1001F800938557D00001A1510001A211D8B41FD096
:1002080000018E510001A15D00018F510001A2592A
:10021800D8B015D0A1C08EF0A2C08FF010D08CC07D
:10022800D9FF8DC0DAFF7CC0E1FF7DC0E2FFDFCFE0
:10023800E7FF00018C4B8D2B00017C4B7D2B0001CF
:100248008E07D8A08F0700018E29E9E100018F29C8
:10025800D8B464EF05F0E3D7A30E00018C6F000E4D
:1002680000018D6F000E00018F6F010E8E6FC2D7D7
:100278007EC0F6FF7FC0F7FF00017E4B7F2B080092
:10028800F5CFA3F00001A351000AD8B473EF05F02D
:10029800640AD8B406D0020AD8B4A9D70F0AD8A4D9
:1002A800DBD7070E00019315D8B419D3000193A921
:1002B80005D0000E0001A26F060EA16F90C0D9FFF5
:1002C80091C0DAFFDECF9EF0DECF9FF0DDCFA0F049
:1002D800030E00019027000E91230001A0AF11D05A
:1002E8009EC066F09FC067F0A0C068F01EEC16F0D4
:1002F80066C09EF067C09FF068C0A0F0030E0001C2
:100308009213000E0001956F000E946F00019E512C
:1003180000019F110001A011D8B491D0820E0001F4
:10032800836FFF0E0001846F9EC085F09FC086F02A
:10033800A0C087F0A1C088F0100E06D00001D890A8
:100348008833873386338533E82EF8D70001855103
:10035800000183250001946F000E00018421000133
:10036800956F00019407D8A0950794C01EF095C01A
:100378001FF0000E216E030E206E5EEC16F01EC0FC
:1003880094F01FC095F094C016F095C017F0000EB9
:10039800196E0A0E186E79EC13F016C094F017C097
:1003A80095F0000195AF04D000019407D8A09507F7
:1003B8000001945100085BEC08F066C096F067C035
:1003C80097F068C098F096C037F097C038F098C09A
:1003D80039F09EC03AF09FC03BF0A0C03CF01FEC43
:1003E80011F037C096F038C097F039C098F096C031
:1003F80010F097C011F098C012F0000E136E800E26
:10040800146E3F0E156EE9EC12F0D8B005D000015D
:100418009407D8A0950713D096C010F097C011F094
:1004280098C012F0000E136E200E146E410E156E59
:10043800E9EC12F0D8A003D00001944B952B0001F1
:10044800A2BF08D00001A2511DE10D0E0001A15D5F
:10045800D8B018D09EC02BF09FC02CF0A0C02DF0B3
:100468000001A15166EC0AF066C02EF067C02FF0BB
:1004780068C030F099EC0CF02BC09EF02CC09FF0B7
:100488002DC0A0F0000195BF08D0000195512AE1C8
:100498000A0E0001945DD8B025D000019E510001DC
:1004A8009F110001A011D8B45FD09EC06DF09FC00D
:1004B8006EF0A0C06FF019EC0EF000016D51000154
:1004C8006E1100016F1100017011D8A44DD0000108
:1004D80095BF4AD00001955105E1020E0001945DD7
:1004E800D8A042D096C010F097C011F098C012F072
:1004F800700E136E890E146E400E156EE9EC12F034
:10050800D8B003D00001F70E02D00001F80E9427EE
:10051800FF0E9523000194515BEC08F066C096F03D
:1005280067C097F068C098F09EC010F09FC011F0A7
:10053800A0C012F096C013F097C014F098C015F040
:10054800F2EC0FF010C09AF011C09BF012C09CF0B2
:1005580013C09DF0000E00019E6F000E00019F6FFA
:10056800000E0001A06F33D09EC06DF09FC06EF0EA
:10057800A0C06FF019EC0EF06DC09AF06EC09BF041
:100588006FC09CF070C09DF09EC037F09FC038F0DF
:10059800A0C039F09AC018F09BC019F09CC01AF09E
:1005A8009DC01BF043EC15F018C03AF019C03BF0A1
:1005B8001AC03CF0C4EC15F037C09EF038C09FF06C
:1005C80039C0A0F0000E0001956F000E946F010E67
:1005D8000001A36F0A0E0001A319D8B41ED00001B0
:1005E800A351040DFB0EF324F66EFD0EF420F76EF6
:1005F8000900F55000019A5D0900F55000019B596A
:100608000900F55000019C590900F55000019D5959
:10061800D8A003D00001A32BDDD7030E000192154B
:100628000001836F000E000193150001846F000123
:10063800835100018411D8B454D07CC0D9FF7DC047
:10064800DAFF2D0E4CD000017C4B7D2B4AD09AC08E
:1006580010F09BC011F09CC012F09DC013F0000177
:10066800A351040DFB0EF324F66EFD0EF420F76E75
:100678000900F5CF14F00900F5CF15F00900F5CF02
:1006880016F00A00F5CF17F0BBEC13F010C096F087
:1006980011C097F012C098F013C099F096C01DF0E1
:1006A80097C01EF098C01FF099C020F00A0E216E66
:1006B800000E226E000E236E000E246EB0EC14F0B5
:1006C8001DC096F01EC097F01FC098F020C099F08A
:1006D80000019651300F7CC0D9FF7DC0DAFFDF6E74
:1006E800B2D70001A3070001A329D8B40ED0AFD711
:1006F8007CC0D9FF7DC0DAFF300EDF6E00017C4B75
:100708007D2B00019407D8A09507000195BF07D05D
:1007180000019551EDE100019405D8B0E9D7000139
:10072800A2BF0CD00001A25105E1090E0001A15D94
:10073800D8A004D0080E0001A36F02D0A1C0A3F076
:100748000001A3510001A15F000E0001A3BFFF0E2D
:100758000001A25B0001A3510001D8B409D07CC0FC
:10076800D9FF7DC0DAFF2E0EDF6E00017C4B7D2B9A
:100778000001A3515BEC08F066C089F067C08AF0FD
:1007880068C08BF09EC03AF09FC03BF0A0C03CF020
:1007980089C037F08AC038F08BC039F01FEC11F0EF
:1007A80037C06DF038C06EF039C06FF019EC0EF03C
:1007B8006DC09AF06EC09BF06FC09CF070C09DF049
:1007C80073D09AC010F09BC011F09CC012F09DC06D
:1007D80013F00001A351040DFB0EF324F66EFD0E79
:1007E800F420F76E0900F5CF14F00900F5CF15F0E5
:1007F8000900F5CF16F00A00F5CF17F0BBEC13F09F
:1008080010C096F011C097F012C098F013C099F07C
:1008180096C01DF097C01EF098C01FF099C020F038
:100828000A0E216E000E226E000E236E000E246E3C
:10083800B0EC14F01DC096F01EC097F01FC098F0E1
:1008480020C099F000019651300F7CC0D9FF7DC0BF
:10085800DAFFDF6E00017C4B7D2B9AC01DF09BC038
:100868001EF09CC01FF09DC020F00001A351040D94
:10087800FB0EF324F66EFD0EF420F76E0900F5CF9B
:1008880021F00900F5CF22F00900F5CF23F00A0086
:10089800F5CF24F0B0EC14F01DC09AF01EC09BF008
:1008A8001FC09CF020C09DF00001A3070001A329F0
:1008B800D8B40ED086D77CC0D9FF7DC0DAFF300E01
:1008C800DF6E00017C4B7D2B0001A107D8A0A20799
:1008D8000001A1510001A211D8B4F2D0ECD790C008
:1008E800D9FF91C0DAFFDECF9AF0DDCF9BF000018F
:1008F800000E9BBFFF0E9C6F9D6F020E000190279C
:10090800000E912300019DAF0CD0030E000192133D
:1009180000019D1F9C1F9B1F9A6D000E9B239C230B
:100928009D230001A1510001A211D8A40DD00001FE
:100938009A5100019B1100019C1100019D11D8A43E
:1009480003D00001A14BA22B010E0001A36F0A0ED8
:100958000001A319D8B41ED00001A351040DFB0E49
:10096800F324F66EFD0EF420F76E0900F550000131
:100978009A5D0900F55000019B590900F5500001E6
:100988009C590900F55000019D59D8A003D00001D9
:10099800A32BDDD7800E0001A3BF7F0E0001836F5C
:1009A8000001A1510001A35D0001A251800A0001CC
:1009B8008359D8B003D0A1C0A3F018D00001A25128
:1009C800800A0001836F0001A3510001A15D800E20
:1009D8000001A3BF7F0E00018359D8B007D00001E2
:1009E800A3510001A16FA26BA1BFA207030E0001D2
:1009F80092150001836F000E000193150001846FAA
:100A08000001835100018411D8B44FD07CC0D9FFB4
:100A18007DC0DAFF2D0EDF6E45D0A1C083F0A2C0E5
:100A280084F00001D890833784370001D890833749
:100A38008437FB0E00018325F66EFD0E8421F76EC8
:100A48000900F5CF14F00900F5CF15F00900F5CF2E
:100A580016F00A00F5CF17F09AC010F09BC011F0FD
:100A68009CC012F09DC013F0BBEC13F010C01DF039
:100A780011C01EF012C01FF013C020F00A0E216E24
:100A8800000E226E000E236E000E246EB0EC14F0E1
:100A98001D50300F0001A36F7CC0D9FF7DC0DAFF65
:100AA800A3C0DFFF00017C4B7D2B0001A107D8A06C
:100AB800A2070001A129B1E10001A229D8A4ADD75C
:100AC8007EC0F6FF7FC0F7FF00017E4B7F2B08003A
:100AD800F5CFA3F00001A351D8A4A1EF00F07CC08A
:100AE800D9FF7DC0DAFF000EDF6E1200000E010193
:100AF8002A6FABD2070E826E0001DB050001DC1104
:100B0800D8A41200000E0001DC6F000EDB6F000E8F
:100B1800446E010E436E1200000EB16EC29066EC78
:100B280017F095EC16F061EC17F0000E0001D66F87
:100B3800000ED56F000E0001DA6F000ED96FB30EEC
:100B4800156EFF0E166E18EC17F0050E826E000E6D
:100B5800116E000E106E2EEC17F012000001D90570
:100B68000001DA11D8A41200000E0001D06F000EA7
:100B7800CF6F0CEC17F010C0CFF011C0D0F0F30E0F
:100B880000017C6F000E00017D6F380E00017E6F42
:100B9800FF0E00017F6FCFC080F0D0C081F099ECCC
:100BA80000F0F30E156E000E166E18EC17F0000E1E
:100BB8000001DA6F000ED96F000E446E010E436E0D
:100BC8001200C90E156EFF0E166E18EC17F0040E03
:100BD800826E000E116E010E106E2EEC17F01200D0
:100BE8000001D9050001DA11D8A41200000E000195
:100BF800E56F000EE46F0CEC17F010C0E4F011C0C4
:100C0800E5F0000E2E6E800E2F6EBF0E306EE4C023
:100C180018F0E5C019F083EC16F018C01FF019C0E1
:100C280020F01AC021F0000E1C6E800E1D6E440EBE
:100C38001E6EAFEC11F01CC02BF01DC02CF01EC0B6
:100C48002DF099EC0CF02BC037F02CC038F02DC0EB
:100C580039F0400E3A6E1C0E3B6E460E3C6E1FEC91
:100C680011F037C02BF138C02CF139C02DF12BC150
:100C780072F02CC173F02DC174F0BBEC0EF072C091
:100C8800E1F073C0E2F074C0E3F0E1C03AF0E2C012
:100C98003BF0E3C03CF0E1C037F0E2C038F0E3C01D
:100CA80039F01FEC11F037C02EF138C02FF139C0E0
:100CB80030F17F0E2E6E750E2F6E390E306E470E88
:100CC8003A6EBC0E3B6E330E3C6E2EC137F02FC110
:100CD80038F030C139F01FEC11F037C02BF038C0B4
:100CE8002CF039C02DF099EC0CF02BC031F12CC050
:100CF80032F12DC033F1000E1C6E800E1D6E3F0EBA
:100D08001E6E000E2E6E940E2F6E3A0E306EE1C0DF
:100D18003AF0E2C03BF0E3C03CF031C137F032C1F9
:100D280038F033C139F01FEC11F037C02BF038C060
:100D38002CF039C02DF099EC0CF02BC01FF02CC012
:100D480020F02DC021F0AFEC11F01CC0E1F01DC067
:100D5800E2F01EC0E3F0E1C02BF0E2C02CF0E3C0EB
:100D68002DF0930E2E6E880E2F6EC30E306E99ECFA
:100D78000CF02BC0E1F02CC0E2F02DC0E3F0B2C0C3
:100D880010F0B3C011F0B4C012F0000E136E480E8C
:100D9800146E420E156EE9EC12F0D8B002D0818ABA
:100DA80001D0819AF30E00017C6F000E00017D6F67
:100DB800D30E00017E6FFE0E00017F6FE1C080F050
:100DC800E2C081F0E3C082F099EC00F0F30E156EFA
:100DD800000E166E18EC17F0000E0001DA6F000E08
:100DE800D96F000E446E010E436E1200070E826E1C
:100DF800939881889D82000ECA6E9E92000ECC6EDA
:100E0800CA50FC0B0109CA6E120058EC0FF0000121
:100E1800C5510001C3250101286F0001C651000119
:100E2800C4210101296F0001C951010128270001CE
:100E3800CA51010129230001CB51010128270001D2
:100E4800CC5101012923FF0E01012817000E291793
:100E58000001BD51010128195CE10001BE510101E9
:100E68002919D8A456D00001DF510001E011D8B4E7
:100E78001BD0F30E00017C6F000E00017D6FF50E94
:100E880000017E6FFE0E00017F6FB8C080F0B9C010
:100E980081F0BAC082F099EC00F0F30E156E000EE6
:100EA800166E18EC17F01AD0F30E00017C6F000EC6
:100EB80000017D6F170E00017E6FFF0E00017F6F2E
:100EC800B8C080F0B9C081F0BAC082F099EC00F0E7
:100ED800F30E156E000E166E18EC17F0F30E0001E7
:100EE8007C6F000E00017D6F590E00017E6FFF0EB2
:100EF80000017F6FB5C080F0B6C081F0B7C082F046
:100F080099EC00F0F30E156E000E166E18EC17F043
:100F180006D08C0E156EFE0E166E18EC17F0000E2D
:100F2800446E010E436E120038EC17F012000001F7
:100F3800D9050001DA11D8A41200050E0001696F65
:100F4800300E8DEC0BF069C0AFF06AC0B0F06BC02A
:100F5800B1F01C0E00017C6F010E00017D6F780E50
:100F680000017E6FFF0E00017F6FAFC080F0B0C040
:100F780081F0B1C082F099EC00F01C0E156E010EE4
:100F8800166E18EC17F0000E0001DA6F000ED96F1C
:100F9800000E446E010E436E1200E90E156EFF0E30
:100FA800166E18EC17F01200000E116E090E106E76
:100FB8002EEC17F012000001D9050001DA11D8A4AF
:100FC8001200000E0001D26F000ED16F0CEC17F06A
:100FD80010C0D1F011C0D2F0F30E00017C6F000EEA
:100FE80000017D6F970E00017E6FFF0E00017F6F7D
:100FF800D1C080F0D2C081F099EC00F0F30E156EEC
:10100800000E166E18EC17F0000E0001DA6F000ED5
:10101800D96F000E446E010E436E1200F50E156E68
:10102800FF0E166E18EC17F066EC17F0000ECA6E7D
:1010380064EC17F0DC0E156EFF0E166E18EC17F048
:101048001200010E01012A6F12004F50410AD8B454
:1010580051D5030AD8B460D5010AD8B47FD5070A98
:10106800D8B41200010AD8B4ACD5030AD8B4B8D59C
:10107800010AD8B412000F0AD8B4B8D6010AD8B4F5
:10108800C4D6030AD8B41200060AD8B44DD7010A48
:10109800D8B44DD7030AD8B480D7010AD8B4BED77C
:1010A8001F0AD8B481D7010AD8B485D7CAD7000196
:1010B8006C6F00016CAF04D100016C6D00016C51C4
:1010C800800A120FD8A094D0000E216E030E206E55
:1010D800000E196E0A0E186E000E136E640E126E54
:1010E80000016C51106E116A10BE110678EC14F0F4
:1010F80010C016F011C017F079EC13F0090E162481
:101108001E6E000E17201F6E5EEC16F0230E1E24B6
:10111800F66EFE0E1F20F76E0900F5CF3AF00900B3
:10112800F5CF3BF00A00F5CF3CF0000E196E640EC7
:10113800186E00016C51166E176A16BE170679EC08
:1011480013F0120E16241E6E000E17201F6E000ECE
:10115800216E030E206E5EEC16F0230E1E24F66E32
:10116800FE0E1F20F76E0900F5CF37F00900F5CF06
:1011780038F00A00F5CF39F01FEC11F037C069F0EC
:1011880038C06AF039C06BF069C037F06AC038F00F
:101198006BC039F0000E216E030E206E000E136E28
:1011A8000A0E126E00016C51106E116A10BE110603
:1011B80078EC14F010C01EF011C01FF05EEC16F0B1
:1011C800230E1E24F66EFE0E1F20F76E0900F5CFC3
:1011D8003AF00900F5CF3BF00A00F5CF3CF01FECE0
:1011E80011F037C066F038C067F039C068F01200F7
:1011F80000016C51800A750FD8A04FD0000E196EEF
:101208000A0E186E00016C51166E176A16BE170684
:1012180079EC13F0090E16241E6E000E17201F6EAF
:10122800000E216E030E206E5EEC16F0230E1E24B7
:10123800F66EFE0E1F20F76E0900F5CF37F0090095
:10124800F5CF38F00A00F5CF39F0000E216E030E05
:10125800206E000E136E0A0E126E00016C51106E95
:10126800116A10BE110678EC14F010C01EF011C0FF
:101278001FF05EEC16F0230E1E24F66EFE0E1F20E5
:10128800F76E0900F5CF3AF00900F5CF3BF00A00F8
:10129800F5CF3CF01FEC11F0A4D700016C51030D01
:1012A800230EF324F66EFE0EF420F76E0900F5CF38
:1012B80066F00900F5CF67F00A00F5CF68F0120074
:1012C80000016C51800A120FD8A094D0000E216E34
:1012D800030E206E000E196E0A0E186E000E136EA5
:1012E800640E126E00016C51106E116A10BE110668
:1012F80078EC14F010C016F011C017F079EC13F068
:10130800090E16241E6E000E17201F6E5EEC16F0D6
:101318004A0E1E24F66EFE0E1F20F76E0900F5CF4A
:101328003AF00900F5CF3BF00A00F5CF3CF0000E8B
:10133800196E640E186E00016C51166E176A16BE8F
:10134800170679EC13F0120E16241E6E000E1720E5
:101358001F6E000E216E030E206E5EEC16F04A0E14
:101368001E24F66EFE0E1F20F76E0900F5CF37F02B
:101378000900F5CF38F00A00F5CF39F01FEC11F06D
:1013880037C069F038C06AF039C06BF069C037F00F
:101398006AC038F06BC039F0000E216E030E206E63
:1013A800000E136E0A0E126E00016C51106E116A57
:1013B80010BE110678EC14F010C01EF011C01FF01A
:1013C8005EEC16F04A0E1E24F66EFE0E1F20F76E17
:1013D8000900F5CF3AF00900F5CF3BF00A00F5CF48
:1013E8003CF01FEC11F037C066F038C067F039C028
:1013F80068F0120000016C51800A750FD8A04FD018
:10140800000E196E0A0E186E00016C51166E176ADE
:1014180016BE170679EC13F0090E16241E6E000E80
:1014280017201F6E000E216E030E206E5EEC16F064
:101438004A0E1E24F66EFE0E1F20F76E0900F5CF29
:1014480037F00900F5CF38F00A00F5CF39F0000E73
:10145800216E030E206E000E136E0A0E126E00012E
:101468006C51106E116A10BE110678EC14F010C0A1
:101478001EF011C01FF05EEC16F04A0E1E24F66E28
:10148800FE0E1F20F76E0900F5CF3AF00900F5CFE0
:101498003BF00A00F5CF3CF01FEC11F0A4D7000197
:1014A8006C51030D4A0EF324F66EFE0EF420F76E0F
:1014B8000900F5CF66F00900F5CF67F00A00F5CF0F
:1014C80068F0120000016F6F6D0E00016F659FD00C
:1014D800000E216E030E206E000E196E0A0E186E95
:1014E800000E136E640E126E6FC010F0116A78EC65
:1014F80014F010C016F011C017F079EC13F0090EB3
:1015080016241E6E000E17201F6E5EEC16F0230EBA
:101518001E24F66EFE0E1F20F76E0900F5CF3AF076
:101528000900F5CF3BF00A00F5CF3CF0000E196E2C
:10153800640E186E6FC016F0176A79EC13F0120E6D
:1015480016241E6E000E17201F6E000E216E030E4D
:10155800206E5EEC16F0230E1E24F66EFE0E1F2083
:10156800F76E0900F5CF37F00900F5CF38F00A001B
:10157800F5CF39F01FEC11F037C06CF038C06DF0C2
:1015880039C06EF0000E216E030E206E000E136E31
:101598000A0E126E6FC010F0116A78EC14F010C0C9
:1015A8001EF011C01FF05EEC16F0230E1E24F66E1E
:1015B800FE0E1F20F76E0900F5CF3AF00900F5CFAF
:1015C8003BF00A00F5CF3CF06CC037F06DC038F046
:1015D8006EC039F01FEC11F037C069F038C06AF0FE
:1015E80039C06BF069C037F06AC038F06BC039F0A9
:1015F800000E3A6E000E3B6E3F0E3C6E1FEC11F073
:1016080037C066F038C067F039C068F012000A0EBB
:1016180000016F655DD0000E216E030E206E000E76
:10162800136E0A0E126E6FC010F0116A78EC14F087
:1016380010C01EF011C01FF05EEC16F0230E1E2421
:10164800F66EFE0E1F20F76E0900F5CF3AF009007E
:10165800F5CF3BF00A00F5CF3CF0000E196E0A0EEC
:10166800186E6FC016F0176A79EC13F0090E16247D
:101678001E6E000E17201F6E000E216E030E206EC8
:101688005EEC16F0230E1E24F66EFE0E1F20F76E7B
:101698000900F5CF37F00900F5CF38F00A00F5CF8B
:1016A80039F01FEC11F037C06CF038C06DF039C05C
:1016B8006EF06CC037F06DC038F06EC039F0000EB7
:1016C8003A6E000E3B6E3F0E3C6E1FEC11F098D741
:1016D80000016F51030D230EF324F66EFE0EF42065
:1016E800F76E0900F5CF37F00900F5CF38F00A009A
:1016F800F5CF39F0000E3A6E000E3B6E3F0E3C6E91
:101708001FEC11F037C066F038C067F039C068F0D8
:1017180012000001746F000E0001766F000E0001C8
:10172800756F000E00016D6F000E6C6F000E0001EA
:10173800716F000E0001726F000E0001736F54ECA0
:1017480017F0C580C5B0FED75AEC17F000017451E8
:101758009EEC15F05AEC17F05EEC17F00001695199
:101768009EEC15F05AEC17F05EEC17F0EA0E406E9E
:10177800C30EE82EFED7402EFCD700F0EA0E406ECE
:10178800C30EE82EFED7402EFCD700F054EC17F01D
:10179800C582C5B2FED75AEC17F0000174299EEC39
:1017A80015F05AEC17F05EEC17F054EC17F0E3EC78
:1017B80016F00001766F5AEC17F0C59AC588C5B8BF
:1017C800FED754EC17F0E3EC16F00001756F5AECF5
:1017D80017F054EC17F0C58AC588C5B8FED75AEC7F
:1017E80017F054EC17F0C584C5B4FED75AEC17F0BF
:1017F80042EC17F0000176511F0B0001766F0001D3
:1018080076A954D0000176510F0B0001766F000EB7
:101818001F6E800E206E410E216E0001755171EC15
:1018280016F018C01CF019C01DF01AC01EF0AFEC5D
:1018380011F01CC02EF01DC02FF01EC030F0000E9D
:101848003A6E800E3B6E410E3C6E0001765171EC93
:1018580016F018C037F019C038F01AC039F01FEC6C
:1018680011F037C02BF038C02CF039C02DF099ECAE
:101878000CF02BC066F02CC067F02DC068F01EEC91
:1018880016F066C06EF067C06FF068C070F06EC08A
:101898002BF06FC02CF070C02DF0000E2E6E800E55
:1018A8002F6E430E306E99EC0CF032D0000E3A6E6B
:1018B800800E3B6E410E3C6E0001765171EC16F0C5
:1018C80018C037F019C038F01AC039F01FEC11F001
:1018D80037C02BF038C02CF039C02DF0000E1F6E29
:1018E800800E206E410E216E0001755171EC16F0CC
:1018F80018C01CF019C01DF01AC01EF0AFEC11F092
:101908001CC02EF01DC02FF01EC030F099EC0CF05A
:101918002BC071F02CC072F02DC073F071C069F04B
:1019280072C06AF073C06BF012002DC031F0326AD9
:10193800336A2C34313601E332803150366E30C090
:1019480031F0326A336A2F34313601E33280315054
:10195800356E3650D8B40BD03550365CD8B00ED072
:10196800365000083524316E180E316407D02EC069
:101978002BF02FC02CF030C02DF012003550D8B409
:101988000BD03650355CD8B00ED035500008362410
:10199800316E180E316407D02BC02BF02CC02CF000
:1019A8002DC02DF01200060E346E2DBE348E30BEC2
:1019B800348C2C8EFF0E2B16FF0E2C16000E2D16B7
:1019C8002F8EFF0E2E16FF0E2F16000E30163550D6
:1019D800365CD8B01BD0D8902E362F363036350628
:1019E80036503518D8B40DD0340634C031F0070E4F
:1019F8003116D8B406D0EFD7D8902D322C322B32EE
:101A0800362A35503618D8B41FD0F6D73650355C3C
:101A1800D8B01AD0D8902B362C362D3636063650FC
:101A28003518D8B40DD0340634C031F0070E31164D
:101A3800D8B406D0EFD7D89030322F322E32352A8C
:101A480035503618D8A4F7D734AE0CD0FF0E2B1A61
:101A5800FF0E2C1AFF0E2D1A010E2B26000E2C221B
:101A6800000E2D2234AC0CD0FF0E2E1AFF0E2F1AAA
:101A7800FF0E301A010E2E26000E2F22000E3022E5
:101A8800000E346E2B502E262C502F222D50302233
:101A980030AE0ED0FF0E2E1AFF0E2F1AFF0E301A80
:101AA800010E2E26000E2F22000E3022010E346E5B
:101AB8002EC010F02FC011F030C012F036C013F055
:101AC80034C014F092EC12F010C02BF011C02CF0BE
:101AD80012C02DF01200000E106E75D04304441091
:101AE800D8A407D0420E4F6E000E446E000E436E0F
:101AF8001200410E4F6E1200430E4F6E1200430447
:101B08004410D8A407D0440E4F6E000E446E000E49
:101B1800436E1200430E4F6E1200450E4F6E1200B8
:101B2800460E4F6E120043044410D8A407D0470E47
:101B38004F6E000E446E000E436E1200460E4F6E3E
:101B48001200480E4F6E1200490E4F6E12004304E9
:101B58004410D8A407D04A0E4F6E000E446E000EF3
:101B6800436E1200490E4F6E12004C0E4F6E12005B
:101B78004D0E4F6E120043044410D8A407D04E0EE9
:101B88004F6E000E446E000E436E12004D0E4F6EE7
:101B98001200500E4F6E1200510E4F6E1200430489
:101BA8004410D8A407D04F0E4F6E000E446E000E9E
:101BB800436E1200510E4F6E1200410E4F6E12000E
:101BC800010E106E12004F50410AD8B487D7030A8D
:101BD800D8B492D7010AD8B492D7070AD8B49DD7F7
:101BE800010AD8B49DD7030AD8B49DD7010AD8B43E
:101BF800A8D70F0AD8B4A8D7010AD8B4A8D7030A17
:101C0800D8B4B3D7060AD8B4B3D7010AD8B4B3D76F
:101C1800030AD8B4BED7010AD8B4CFD71F0AD8B49C
:101C2800BBD7010AD8B4BBD7CBD76FC071F00001BE
:101C3800726B736B00016E350001713701E37281BD
:101C48000001715100017B6F00017B51D8A40AD0BB
:101C5800000E00016D6F000E6E6F000E6F6F000EAC
:101C6800706F1200170E0001716F6DC072F06EC0B8
:101C780073F06FC074F0000171290001756F05D011
:101C88000001D8907433733372330001752FF8D77D
:101C9800000172510001766F00016E8FFF0E000186
:101CA8006D17FF0E00016E17000E00016F1700017F
:101CB8006D510001776F00016E510001786F0001CE
:101CC8006F510001796F00017A6B8E0E00017B5F06
:101CD80000017BAF1AD000017B51800A8F0FD8B06A
:101CE8000AD0000E00016D6F000E6E6F000E6F6F50
:101CF800000E706F12000001D8907A337933783370
:101D0800773300017B3FF7D71BD0170E00017B65A7
:101D180012D0000E00016D6F000E6E6F000E6F6F17
:101D2800000E706F12000001D89077377837793736
:101D38007A3700017B0700017B510001D8A4F3D753
:101D4800000176510001D8B409D000017A1F791F2B
:101D5800781F776D000E782379237A2377C06DF08A
:101D680078C06EF079C06FF07AC070F01200000190
:101D780074AF0FD0000E0001D46F210ED36F000E88
:101D88000001726F000E0001736F000E0001746F86
:101D98001200000172510001731100017411D8A4DE
:101DA8000FD0000E0001D46F220ED36F000E000179
:101DB800726F000E0001736F000E0001746F120045
:101DC800000E3A6E000E3B6E400E3C6E750E136EA2
:101DD800000E146E72C010F073C011F074C012F0CF
:101DE80031EC13F010C037F011C038F012C039F0E0
:101DF8001FEC11F037C02BF038C02CF039C02DF093
:101E0800000E2E6E800E2F6EBF0E306E99EC0CF009
:101E18002BC072F02CC073F02DC074F00001750750
:101E2800D8A0760772C066F073C067F074C068F017
:101E3800710E0001696FFE0E00016A6F000E00014D
:101E48006C6F080E6B6F22EC12F066C072F067C000
:101E580073F068C074F0720E3A6E310E3B6E3F0E2E
:101E68003C6E75C018F076C019F002EC16F018C078
:101E780037F019C038F01AC039F01FEC11F037C02C
:101E88002BF038C02CF039C02DF072C02EF073C082
:101E98002FF074C030F099EC0CF02BC072F02CC00D
:101EA80073F02DC074F01200A6EC16F071EC15F06A
:101EB80010C045F011C046F045504610D8A407D0D0
:101EC800B00E156EFE0E166E18EC17F01200FCEC34
:101ED80013F010C0C3F011C0C4F0FCEC13F010C034
:101EE800C5F011C0C6F0FCEC13F010C0C9F011C069
:101EF800CAF0FCEC13F010C0CBF011C0CCF0FCEC35
:101F080013F010C0BDF011C0BEF0420EE82EFED78F
:101F180000F000F0939881880001C3512C6E2B6A61
:101F28000001C5512B100001DD6F0001C6512C10B6
:101F38000001DE6F0001C9512C6E2B6A0001CB51E4
:101F48002B10496E0001CC512C104A6E000E000176
:101F5800E06F000EDF6F4904800E4A58D8A009D000
:101F6800FF0E49160F0E4A16000E0001E06F010E13
:101F7800DF6FDDC018F0DEC019F083EC16F018C072
:101F88001CF019C01DF01AC01EF0000E1F6E200EA6
:101F9800206E410E216EAFEC11F01CC0B5F01DC0D3
:101FA800B6F01EC0B7F049C018F04AC019F083EC6B
:101FB80016F018C01CF019C01DF01AC01EF0000E53
:101FC8001F6E200E206E410E216EAFEC11F01CC06A
:101FD800B8F01DC0B9F01EC0BAF0120012C016F059
:101FE800176A186A1134163601E3178016501E6EE8
:101FF8001E50D8A409D0000E106E000E116E000EEF
:10200800126E000E136E120015C016F0176A186AC9
:102018001434163601E3178016501D6E1D50D8A4CF
:1020280009D0000E106E000E116E000E126E000E1A
:10203800136E1200118EFF0E1016FF0E1116000EF1
:102048001216148EFF0E1316FF0E1416000E151618
:10205800000E196E000E1A6E000E1B6E000E1C6E1E
:102068007F0E1E5E1D50980F1E5E180E1D6ED890B6
:1020780019361A361B361C361350105C145011587A
:1020880015501258D8A007D01350105E1450115A8A
:102098001550125A1980D8901036113612361D2E46
:1020A800E6D71EAE16D01E50800A970FD8B009D0BA
:1020B800000E106E000E116E000E126E000E136EE2
:1020C8001200D8901C321B321A3219321E3EF9D730
:1020D80015D0170E1E640FD0000E106E000E116E74
:1020E800000E126E000E136E1200D89019361A36B2
:1020F8001B361C361E061E50D8A4F7D719C010F080
:102108001AC011F01BC012F01CC013F012001234D8
:1021180013341B6E1B50D8A409D0000E106E000E8D
:10212800116E000E126E000E136E12001534163466
:102138001A6E1A50D8A409D0000E106E000E116E37
:10214800000E126E000E136E1200128EFF0E101685
:10215800FF0E1116FF0E1216000E1316158EFF0E27
:102168001316FF0E1416FF0E1516000E1616000E87
:10217800166E000E176E000E186E000E196E7F0E8A
:102188001B5E1A50A00F1B5E200E1A6ED8901636D2
:102198001736183619361350105C1450115815504C
:1021A800125816501358D8A009D01350105E145066
:1021B800115A1550125A1650135A1680D8901036C4
:1021C8001136123613361A2EE1D71BAE16D01B5015
:1021D800800A9F0FD8B009D0000E106E000E116E45
:1021E800000E126E000E136E1200D89019321832BB
:1021F800173216321B3EF9D715D01F0E1B640FD0AD
:10220800000E106E000E116E000E126E000E136E90
:102218001200D89016361736183619361B061B507A
:10222800D8A4F7D716C010F017C011F018C012F0D4
:1022380019C013F0120039C03DF03E6A3F6A3834C5
:102248003D3601E33E803D500001606F0001605162
:10225800D8A407D0000E376E000E386E000E396E07
:1022680012003CC03DF03E6A3F6A3B343D3601E314
:102278003E803D500001656F00016551D8A407D02C
:10228800000E376E000E386E000E396E1200000117
:1022980065517B0F0001602739C065F03C50000193
:1022A800651B800E00016517388E3B8EFF0E3A16AF
:1022B800FF0E3B16000E3C16000E0001616F000E6B
:1022C8000001626F000E0001636F070E0001646F6A
:1022D80037A009D03A50000161273B500001622322
:1022E8003C5000016323D890393238323732D890C5
:1022F8003A363B363C360001642FEAD7090E000116
:10230800646F37A009D03A50000161273B500001A3
:1023180062233C5000016323D89039323832373277
:102328000001D8906333623361330001642FE9D729
:1023380061C010F062C011F063C012F060C013F009
:1023480065C014F092EC12F010C037F011C038F0EC
:1023580012C039F012001EC022F0236A246A1D340C
:10236800223601E323802250296E2950D8A407D0B1
:10237800000E1C6E000E1D6E000E1E6E120021C097
:1023880022F0236A246A2034223601E32380225073
:102398002A6E2A50D8A407D0000E1C6E000E1D6E9F
:1023A800000E1E6E1200000E266E000E276E000E26
:1023B800286E2A50890F295E1EC02AF021502A1A39
:1023C800800E2A161D8EFF0E1C16FF0E1D16000EFF
:1023D8001E16208EFF0E1F16FF0E2016000E211649
:1023E800180E256ED8902636273628361F501C5CC6
:1023F80020501D5821501E58D8A007D01F501C5ED1
:1024080020501D5A21501E5A2680D8901C361D3641
:102418001E36252EE7D726C010F027C011F028C099
:1024280012F029C013F02AC014F092EC12F010C078
:102438001CF011C01DF012C01EF012006BC01EF07F
:102448006CC01FF0000E216E030E206E5EEC16F0BD
:1024580069C06DF06AC06EF01E5000016D271F50F4
:1024680000016E236DC0F6FF6EC0F7FF0900F5CFBF
:102478006FF00900F5CF70F00A00F5CF71F041D088
:102488006FC03AF070C03BF071C03CF066C037F0E6
:1024980067C038F068C039F01FEC11F037C02BF076
:1024A80038C02CF039C02DF0000E216E030E206EBE
:1024B80000016B07D8A06C076BC01EF06CC01FF042
:1024C8005EEC16F069C06DF06AC06EF01E50000137
:1024D8006D271F5000016E236DC0F6FF6EC0F7FF19
:1024E8000900F5CF2EF00900F5CF2FF00A00F5CF3F
:1024F80030F099EC0CF02BC06FF02CC070F02DC0B0
:1025080071F000016B5100016C11D8A4B9D76FC0EC
:1025180066F070C067F071C068F012001350D8B44C
:1025280005D0105011101210D8A40CD0000E106E47
:10253800000E116E000E126E1200132AD89012327D
:1025480011321032000E1014156E000E1114166E92
:10255800FE0E1214176E155016101710D8B40CD0A2
:10256800ECD7132A010E1026000E1122000E12229B
:10257800D890123211321032000E1014156E000E5F
:102588001114166EFF0E1214176E15501610171030
:10259800D8B406D0E6D71306D890103611361236BE
:1025A80011BE03D0020E1360F6D713A0119ED89067
:1025B8001332135012121450D8A4128E10C010F0F7
:1025C80011C011F012C012F0120012AE16D010C0D5
:1025D80016F011C017F012C018F0161E171E181E9C
:1025E800162A000E17221822000E1624106E000E4E
:1025F8001720116E800E1820126E15AE16D013C05B
:1026080016F014C017F015C018F0161E171E181E65
:10261800162A000E17221822000E1624136E000E1A
:102628001720146E800E1820156E000E101A000E5A
:10263800111A800E121A000E131A000E141A800EA8
:10264800151A1350105C1450115815501258D8B060
:1026580002D0D8901200D880120010501110121019
:10266800D8A40FD013C0D9FF14C0DAFF000EDE6E55
:10267800000EDD6E000E106E000E116E000E126E52
:10268800120012507F0B156E166AD8901536163642
:1026980013C0D9FF14C0DAFF15C0DEFF16C0DDFF76
:1026A80011AE03D0156A152A01D0156A155013C04A
:1026B800D9FF14C0DAFFDE12000EDD1213C0D9FFF5
:1026C80014C0DAFF820EDE26FF0EDD22128012828F
:1026D800128412861288128A129C119E10C010F061
:1026E80011C011F012C012F01200000E1B6E19AECC
:1026F80006D0186C191ED8B0192A010E1B6E17AE19
:1027080006D0166C171ED8B0172A010E1B1A000E19
:102718001D6E000E1C6E18501910D8B41CD0010E76
:102728001A6E04D0D890183619361A2A19AEFAD764
:10273800D8901C361D361850165C19501758D8A05A
:1027480005D01850165E1950175A1C80D8901932A7
:1027580018321A2EEDD71B50D8B404D01C6C1D1E8D
:10276800D8B01D2A1CC016F01DC017F01200000EAC
:10277800186E000E196E000E1A6E000E1B6E1450A5
:10278800151016101710D8B42AD0010E1C6E06D0DA
:10279800D89014361536163617361C2A17AEF8D7C1
:1027A800D890183619361A361B361450105C155046
:1027B80011581650125817501358D8A009D0145051
:1027C800105E1550115A1650125A1750135A188085
:1027D800D89017321632153214321C2EE1D718C091
:1027E80010F019C011F01AC012F01BC013F012003B
:1027F800000E166E000E156E9388000E486E000EC1
:10280800476E485030E1080E475CD8B02CD081B8EC
:1028180004D041504210D8B4FAD7000ECC6ECA8406
:1028280081A804D041504210D8B4FAD7CA94310EC6
:10283800CC6414D047500008126E070E1226010E01
:10284800136E000E146E122A03D0D8901336143665
:10285800122EFBD71350151214501612474A482A45
:10286800485001E1D0D715C010F016C011F0120081
:1028780000EEA4F0420EEE6AE806FDE100EE41F03B
:102888000E0EEE6AE806FDE16C0EF66E2C0EF76E83
:10289800000EF86E01EE00F010EE28F00900F5CFFA
:1028A800EEFFE550E150FAE1FE0EF66E2D0EF76EE2
:1028B800000EF86E00EEE6F010EE19F00900F5CF04
:1028C800EEFFE550E150FAE1D00EF66E2E0EF76EEF
:1028D800000EF86E0900F5CF4FF050905092000EA0
:1028E800F86E00014AEF16F0000E156E11AE06D014
:1028F800106C111ED8B0112A010E156E13AE04D03B
:10290800126C131ED8B0132A12501310D8B418D052
:10291800010E146E04D0D89012361336142A13AE52
:10292800FAD71250105C13501158D8A004D0125086
:10293800105E1350115AD89013321232142EF1D758
:102948001550D8B404D0106C111ED8B0112A10C07C
:1029580010F011C011F01200215022102310241081
:10296800D8B424D0010E256E06D0D8902136223650
:1029780023362436252A24AEF8D721501D5C225050
:102988001E5823501F5824502058D8A008D0215032
:102998001D5E22501E5A23501F5A2450205AD89088
:1029A8002432233222322132252EE7D71DC01DF0D2
:1029B8001EC01EF01FC01FF020C020F01200ACA2E5
:1029C800FED711C0F6FF12C0F7FF000EF86E0F0E0B
:1029D800F76403D00800F55005D0F6CFE9FFF7CF2C
:1029E800EAFFEF504BEC17F01150136E1250146EB3
:1029F800114A122A13C0F6FF14C0F7FF000EF86E32
:102A08000F0EF76403D00800F55005D0F6CFE9FFA4
:102A1800F7CFEAFFEF500009D8B41200D0D7126EF2
:102A2800000EAC6E000EAB6E12B0AC8812A202D0D3
:102A3800AC8CAB8C12B4AC8E12A602D0AB8801D091
:102A4800AB8A12B8AC849E9812BAAB8612AC02D08C
:102A58009D8A01D09D9A9E9A12AE02D09D8801D07F
:102A68009D9810C0AFFF1150B06EAC8AAB8E949C8D
:102A7800948EACA81200ACBE1200948C12008E0E7C
:102A8800206E06D0D8901B321A3219321832202AFA
:102A9800000E18141C6E000E19141D6E000E1A1468
:102AA8001E6EFF0E1B141F6E1C501D101E101F10D3
:102AB800D8A4E8D718C010F019C011F01AC012F045
:102AC80020C013F0000E146E92EC12F010C018F033
:102AD80011C019F012C01AF01200000E426E000E5A
:102AE800416E000ECC6ECA8481B804D041504210A9
:102AF800D8B4FAD741504210D8B405D0000E116EA0
:102B0800000E106E1200000ECC6E81A804D0415049
:102B18004210D8B4FAD741504210D8B405D0000EAC
:102B2800116E000E106E1200CA94000E116E010E86
:102B3800106E1200116E11C0C9FFC6BE1200C65039
:102B48000F0B080AD8B40CD0C6500F0B0B0AD8B418
:102B580007D0C6889EA6FED7C7B41200C750120079
:102B6800C6500F0B080AD8B405D0C6500F0B0B0A75
:102B7800D8A41200C7B0FED742EC17F0C550120017
:102B88003A503B103C10D8B406D0000E3A1A000E4A
:102B98003B1A800E3C1A37C02BF038C02CF039C0D5
:102BA8002DF03AC02EF03BC02FF03CC030F099EC2D
:102BB8000CF02BC037F02CC038F02DC039F01200C3
:102BC800030E926E000E896E000E806E090E936ED3
:102BD800000E8A6E8168F80E946E000E8B6E070EDA
:102BE800826EF28EF28CF292F19CF288F19EF2865D
:102BF800F180700ED36EF1EC16F01200000E1B6E11
:102C080019AE06D0186C191ED8B0192A010E1B6E01
:102C180018C010F019C011F0126A8E0E136E1BC086
:102C280014F092EC12F010C018F011C019F012C094
:102C38001AF01200000166510001671100016811C5
:102C4800D8B409D0000E0001661B000E0001671BF6
:102C5800800E0001681B66C066F067C067F068C038
:102C680068F0120054656D70203D2030302E302001
:102C7800430052482020203D2030302E30202500AF
:102C880048656C6C6F20576F726C6400E4EC15F04B
:102C98007AEC05F06FEC0DF00001C7050001C811D2
:102CA800D8A4F6D74BC04FF0000E0001C86F000E35
:102CB800C76FEED71E502002F3CF22F0F4CF23F0D7
:102CC8001E502102F35023261F502002F3502326C2
:102CD80022C01EF023C01FF012001B6E1B50106E86
:102CE800116A126A8E0E136E000E146E92EC12F0B8
:102CF80010C018F011C019F012C01AF0120018C054
:102D080010F019C011F0126A8E0E136E000E146EB8
:102D180092EC12F010C018F011C019F012C01AF09D
:102D28001200A082000EB16EB18EB19CB19AB1882A
:102D3800B196B194B192B180F80EB36E460EB26EF0
:102D4800A1921200939881985E0E106E800EE82E64
:102D5800FED7102EFCD700F000F09388280EE82E3E
:102D6800FED71200126E000E116E3A0E126005D0D8
:102D78002F0E126402D0010E116E11C010F0103027
:102D88001200116E3F0EC716000EC66E000EC56EFD
:102D98001150C6121050C71294869488C68A120021
:102DA800F20E4C16ABAC03D04C90ABB04C80ABB42D
:102DB8004C84ABB24C86AECF01F001501200C65025
:102DC8000F0B080AD8B404D0C6500F0B0B0AD8B49E
:102DD800C586C7A0FED7C9501200000E116E670E37
:102DE800106E7C0E13EC15F0DC0E156EFF0E166ED1
:102DF80018EC17F0120071554048013FD7233C40AA
:102E08001FE80348656C6C6F20576F726C64000094
:102E1800C282C2B2FED7C3CFBBF0C4CFBCF0BBC026
:102E280010F0BCC011F01200ACA2FED715C011F012
:102E380016C012F0E3EC14F023EC17F01200ACA269
:102E4800FED70D0E4BEC17F0ACA2FED70A0E4BECDA
:102E580017F0120010C012F012461246C250121893
:102E6800C30B1218C26E1200270EC86E800E106EA9
:102E7800080EC5EC16F042EC17F01200C5CF10F0A2
:102E88001F0E1016D8A4FAD7C7A41200F7D7106ED1
:102E9800ACAC03D0AC904CB2AC8010C0ADFF12000B
:102EA800C598C594C596C592C59012009EA6FED732
:102EB8009E961200C5AC1200FDD7C280C08E1200CB
:0A2EC800C2901200C69A12004100E9
:10FDFA0000010000000A00000064000000E803009F
:10FE0A000010270000A086010040420F008096984B
:10FE1A000000E1F50500CA9A3B00803FCDCC3DD7F2
:10FE2A00233C12833AB7D138C62737388635C0D62D
:10FE3A0033CC2B32708930E7DB2EE53C1E42A20D13
:10FE4A0000803F00204100C842007A44401C4650CE
:10FE5A00C34724744997184BBCBE4C6B6E4E0315AE
:10FE6A005079AD60F3497100000000803FF0FFBE99
:10FE7A00E2A93E8376BEAE2B3E3CC3BDD2133D788B
:10FE8A00D3BB436865636B73756D204572726F727D
:10FE9A0021202020547279696E6720416761696E5A
:10FEAA00202E2E2E20004E6F20726573706F6E7397
:10FEBA0065202066726F6D207468652073656E73A5
:10FECA006F72204448543232004441544120414E1A
:10FEDA00414C4F47203A54656D7065726174757272
:10FEEA0065203D20252E316620430044415441209F
:10FEFA004448543232203A54656D706572617475A3
:10FF0A007265203D202D252E316620430044415440
:10FF1A0041204448543232203A54656D706572610A
:10FF2A0074757265203D20252E31662043004441B8
:10FF3A00544120414E414C4F47203A48756D656403
:10FF4A00616420544945525241203D2025640044B1
:10FF5A00415441204448543232203A48756D69640C
:10FF6A00697479203D20252E3166202525004441DB
:10FF7A00544120493243203A54656D706572617468
:10FF8A00757265203D20252E316620430044415478
:10FF9A0041204C4452203A56616C6F7220416E6186
:10FFAA006C6F67203D20256400416E616C6F67208D
:10FFBA004D6F646520416371756972696E670049A6
:10FFCA003243204D6F646520416371756972696EB1
:10FFDA00670049646C65206D6F6465204F4E004C64
:10FFEA004452206D6F6465204F4E00536C656570F6
:06FFFA0020387300000036
:020000040020DA
:08000000FFFFFFFFFFFFFFFF00
:020000040030CA
:0E000000FF08191EFF8981FF0FC00FE00F409F
:00000001FF
